{
  "contractName": "Aggregator",
  "abi": [
    {
      "inputs": [],
      "stateMutability": "nonpayable",
      "type": "constructor"
    },
    {
      "inputs": [],
      "name": "Owner",
      "outputs": [
        {
          "internalType": "address",
          "name": "",
          "type": "address"
        }
      ],
      "stateMutability": "view",
      "type": "function"
    },
    {
      "inputs": [],
      "name": "amountDeposited",
      "outputs": [
        {
          "internalType": "uint256",
          "name": "",
          "type": "uint256"
        }
      ],
      "stateMutability": "view",
      "type": "function"
    },
    {
      "inputs": [],
      "name": "fundsLocation",
      "outputs": [
        {
          "internalType": "address",
          "name": "",
          "type": "address"
        }
      ],
      "stateMutability": "view",
      "type": "function"
    },
    {
      "inputs": [
        {
          "internalType": "uint256",
          "name": "fund",
          "type": "uint256"
        },
        {
          "internalType": "uint256",
          "name": "_aveAPY",
          "type": "uint256"
        },
        {
          "internalType": "uint256",
          "name": "_compAPY",
          "type": "uint256"
        }
      ],
      "name": "deposit",
      "outputs": [],
      "stateMutability": "nonpayable",
      "type": "function"
    },
    {
      "inputs": [],
      "name": "Withdraw",
      "outputs": [],
      "stateMutability": "nonpayable",
      "type": "function"
    },
    {
      "inputs": [],
      "name": "whereBalance",
      "outputs": [
        {
          "internalType": "address",
          "name": "",
          "type": "address"
        }
      ],
      "stateMutability": "view",
      "type": "function"
    },
    {
      "inputs": [],
      "name": "ContractBalance",
      "outputs": [
        {
          "internalType": "uint256",
          "name": "",
          "type": "uint256"
        }
      ],
      "stateMutability": "view",
      "type": "function"
    },
    {
      "inputs": [
        {
          "internalType": "uint256",
          "name": "_aveAPY",
          "type": "uint256"
        },
        {
          "internalType": "uint256",
          "name": "_compAPY",
          "type": "uint256"
        }
      ],
      "name": "reBalance",
      "outputs": [],
      "stateMutability": "nonpayable",
      "type": "function"
    }
  ],
  "bytecode": "0x6080604052736b175474e89094c44da98b954eedeac495271d0f6000806101000a81548173ffffffffffffffffffffffffffffffffffffffff021916908373ffffffffffffffffffffffffffffffffffffffff16021790555073028171bca77440897b824ca71d1c56cac55b68a3600160006101000a81548173ffffffffffffffffffffffffffffffffffffffff021916908373ffffffffffffffffffffffffffffffffffffffff160217905550735d3a536e4d6dbd6114cc1ead35777bab948e3643600260006101000a81548173ffffffffffffffffffffffffffffffffffffffff021916908373ffffffffffffffffffffffffffffffffffffffff160217905550737d2768de32b0b80b7a3454c06bdac94a69ddc7a9600360006101000a81548173ffffffffffffffffffffffffffffffffffffffff021916908373ffffffffffffffffffffffffffffffffffffffff16021790555034801561016357600080fd5b5033600460006101000a81548173ffffffffffffffffffffffffffffffffffffffff021916908373ffffffffffffffffffffffffffffffffffffffff160217905550611542806101b46000396000f3fe608060405234801561001057600080fd5b50600436106100875760003560e01c8063a19e19ab1161005b578063a19e19ab146100ee578063a279879b1461010c578063b4a99a4e14610128578063f86ccd411461014657610087565b8062aeef8a1461008c578063120013b2146100a85780633b668059146100c657806357ea89b6146100e4575b600080fd5b6100a660048036038101906100a19190611134565b610164565b005b6100b0610335565b6040516100bd91906111c8565b60405180910390f35b6100ce61035f565b6040516100db91906111f2565b60405180910390f35b6100ec61051b565b005b6100f6610754565b60405161010391906111c8565b60405180910390f35b6101266004803603810190610121919061120d565b61077a565b005b6101306109de565b60405161013d91906111c8565b60405180910390f35b61014e610a04565b60405161015b91906111f2565b60405180910390f35b6000831161017157600080fd5b6000600654111561018757610186818361077a565b5b60008054906101000a900473ffffffffffffffffffffffffffffffffffffffff1673ffffffffffffffffffffffffffffffffffffffff166323b872dd3330866040518463ffffffff1660e01b81526004016101e49392919061124d565b6020604051808303816000875af1158015610203573d6000803e3d6000fd5b505050506040513d601f19601f8201168201806040525081019061022791906112bc565b50826006546102369190611318565b600681905550808211156102b05761024c610a0a565b600360009054906101000a900473ffffffffffffffffffffffffffffffffffffffff16600560006101000a81548173ffffffffffffffffffffffffffffffffffffffff021916908373ffffffffffffffffffffffffffffffffffffffff1602179055505b818111156103305760006102c2610c37565b146102cc57600080fd5b600260009054906101000a900473ffffffffffffffffffffffffffffffffffffffff16600560006101000a81548173ffffffffffffffffffffffffffffffffffffffff021916908373ffffffffffffffffffffffffffffffffffffffff1602179055505b505050565b6000600560009054906101000a900473ffffffffffffffffffffffffffffffffffffffff16905090565b6000600260009054906101000a900473ffffffffffffffffffffffffffffffffffffffff1673ffffffffffffffffffffffffffffffffffffffff16600560009054906101000a900473ffffffffffffffffffffffffffffffffffffffff1673ffffffffffffffffffffffffffffffffffffffff16036104795760008054906101000a900473ffffffffffffffffffffffffffffffffffffffff1673ffffffffffffffffffffffffffffffffffffffff166370a08231306040518263ffffffff1660e01b815260040161043191906111c8565b602060405180830381865afa15801561044e573d6000803e3d6000fd5b505050506040513d601f19601f820116820180604052508101906104729190611383565b9050610518565b600160009054906101000a900473ffffffffffffffffffffffffffffffffffffffff1673ffffffffffffffffffffffffffffffffffffffff166370a08231306040518263ffffffff1660e01b81526004016104d491906111c8565b602060405180830381865afa1580156104f1573d6000803e3d6000fd5b505050506040513d601f19601f820116820180604052508101906105159190611383565b90505b90565b600460009054906101000a900473ffffffffffffffffffffffffffffffffffffffff1673ffffffffffffffffffffffffffffffffffffffff163373ffffffffffffffffffffffffffffffffffffffff161461057557600080fd5b60006006541161058457600080fd5b600260009054906101000a900473ffffffffffffffffffffffffffffffffffffffff1673ffffffffffffffffffffffffffffffffffffffff16600560009054906101000a900473ffffffffffffffffffffffffffffffffffffffff1673ffffffffffffffffffffffffffffffffffffffff160361060957610603610e5a565b50610612565b610611610fa5565b5b60008054906101000a900473ffffffffffffffffffffffffffffffffffffffff1673ffffffffffffffffffffffffffffffffffffffff1663a9059cbb3360008054906101000a900473ffffffffffffffffffffffffffffffffffffffff1673ffffffffffffffffffffffffffffffffffffffff166370a08231306040518263ffffffff1660e01b81526004016106a891906111c8565b602060405180830381865afa1580156106c5573d6000803e3d6000fd5b505050506040513d601f19601f820116820180604052508101906106e99190611383565b6040518363ffffffff1660e01b81526004016107069291906113b0565b6020604051808303816000875af1158015610725573d6000803e3d6000fd5b505050506040513d601f19601f8201168201806040525081019061074991906112bc565b506000600681905550565b600560009054906101000a900473ffffffffffffffffffffffffffffffffffffffff1681565b600460009054906101000a900473ffffffffffffffffffffffffffffffffffffffff1673ffffffffffffffffffffffffffffffffffffffff163373ffffffffffffffffffffffffffffffffffffffff16146107d457600080fd5b6000600654116107e357600080fd5b80821180156108625750600360009054906101000a900473ffffffffffffffffffffffffffffffffffffffff1673ffffffffffffffffffffffffffffffffffffffff16600560009054906101000a900473ffffffffffffffffffffffffffffffffffffffff1673ffffffffffffffffffffffffffffffffffffffff1614155b156108e05761086f610e5a565b50610878610a0a565b600360009054906101000a900473ffffffffffffffffffffffffffffffffffffffff16600560006101000a81548173ffffffffffffffffffffffffffffffffffffffff021916908373ffffffffffffffffffffffffffffffffffffffff1602179055506109da565b818111801561095f5750600260009054906101000a900473ffffffffffffffffffffffffffffffffffffffff1673ffffffffffffffffffffffffffffffffffffffff16600560009054906101000a900473ffffffffffffffffffffffffffffffffffffffff1673ffffffffffffffffffffffffffffffffffffffff1614155b156109d95761096c610fa5565b610974610c37565b50600260009054906101000a900473ffffffffffffffffffffffffffffffffffffffff16600560006101000a81548173ffffffffffffffffffffffffffffffffffffffff021916908373ffffffffffffffffffffffffffffffffffffffff1602179055505b5b5050565b600460009054906101000a900473ffffffffffffffffffffffffffffffffffffffff1681565b60065481565b60008054906101000a900473ffffffffffffffffffffffffffffffffffffffff1673ffffffffffffffffffffffffffffffffffffffff1663095ea7b3600360009054906101000a900473ffffffffffffffffffffffffffffffffffffffff1674446c3b15f9926687d2c40534fdb5640000000000006040518363ffffffff1660e01b8152600401610a9c92919061141e565b6020604051808303816000875af1158015610abb573d6000803e3d6000fd5b505050506040513d601f19601f82011682018060405250810190610adf91906112bc565b610ae857600080fd5b600360009054906101000a900473ffffffffffffffffffffffffffffffffffffffff1673ffffffffffffffffffffffffffffffffffffffff1663e8eda9df60008054906101000a900473ffffffffffffffffffffffffffffffffffffffff1660008054906101000a900473ffffffffffffffffffffffffffffffffffffffff1673ffffffffffffffffffffffffffffffffffffffff166370a08231306040518263ffffffff1660e01b8152600401610ba091906111c8565b602060405180830381865afa158015610bbd573d6000803e3d6000fd5b505050506040513d601f19601f82011682018060405250810190610be19190611383565b3060006040518563ffffffff1660e01b8152600401610c039493929190611490565b600060405180830381600087803b158015610c1d57600080fd5b505af1158015610c31573d6000803e3d6000fd5b50505050565b60008060009054906101000a900473ffffffffffffffffffffffffffffffffffffffff1673ffffffffffffffffffffffffffffffffffffffff1663095ea7b3600260009054906101000a900473ffffffffffffffffffffffffffffffffffffffff1674446c3b15f9926687d2c40534fdb5640000000000006040518363ffffffff1660e01b8152600401610ccc92919061141e565b6020604051808303816000875af1158015610ceb573d6000803e3d6000fd5b505050506040513d601f19601f82011682018060405250810190610d0f91906112bc565b610d1857600080fd5b6000600260009054906101000a900473ffffffffffffffffffffffffffffffffffffffff1673ffffffffffffffffffffffffffffffffffffffff1663a0712d6860008054906101000a900473ffffffffffffffffffffffffffffffffffffffff1673ffffffffffffffffffffffffffffffffffffffff166370a08231306040518263ffffffff1660e01b8152600401610db191906111c8565b602060405180830381865afa158015610dce573d6000803e3d6000fd5b505050506040513d601f19601f82011682018060405250810190610df29190611383565b6040518263ffffffff1660e01b8152600401610e0e91906111f2565b6020604051808303816000875af1158015610e2d573d6000803e3d6000fd5b505050506040513d601f19601f82011682018060405250810190610e519190611383565b90508091505090565b600080600260009054906101000a900473ffffffffffffffffffffffffffffffffffffffff1673ffffffffffffffffffffffffffffffffffffffff166370a08231306040518263ffffffff1660e01b8152600401610eb891906111c8565b602060405180830381865afa158015610ed5573d6000803e3d6000fd5b505050506040513d601f19601f82011682018060405250810190610ef99190611383565b90506000600260009054906101000a900473ffffffffffffffffffffffffffffffffffffffff1673ffffffffffffffffffffffffffffffffffffffff1663db006a75836040518263ffffffff1660e01b8152600401610f5891906111f2565b6020604051808303816000875af1158015610f77573d6000803e3d6000fd5b505050506040513d601f19601f82011682018060405250810190610f9b9190611383565b9050809250505090565b6000600160009054906101000a900473ffffffffffffffffffffffffffffffffffffffff1673ffffffffffffffffffffffffffffffffffffffff166370a08231306040518263ffffffff1660e01b815260040161100291906111c8565b602060405180830381865afa15801561101f573d6000803e3d6000fd5b505050506040513d601f19601f820116820180604052508101906110439190611383565b9050600360009054906101000a900473ffffffffffffffffffffffffffffffffffffffff1673ffffffffffffffffffffffffffffffffffffffff166369328dec60008054906101000a900473ffffffffffffffffffffffffffffffffffffffff1683306040518463ffffffff1660e01b81526004016110c4939291906114d5565b600060405180830381600087803b1580156110de57600080fd5b505af11580156110f2573d6000803e3d6000fd5b5050505050565b600080fd5b6000819050919050565b611111816110fe565b811461111c57600080fd5b50565b60008135905061112e81611108565b92915050565b60008060006060848603121561114d5761114c6110f9565b5b600061115b8682870161111f565b935050602061116c8682870161111f565b925050604061117d8682870161111f565b9150509250925092565b600073ffffffffffffffffffffffffffffffffffffffff82169050919050565b60006111b282611187565b9050919050565b6111c2816111a7565b82525050565b60006020820190506111dd60008301846111b9565b92915050565b6111ec816110fe565b82525050565b600060208201905061120760008301846111e3565b92915050565b60008060408385031215611224576112236110f9565b5b60006112328582860161111f565b92505060206112438582860161111f565b9150509250929050565b600060608201905061126260008301866111b9565b61126f60208301856111b9565b61127c60408301846111e3565b949350505050565b60008115159050919050565b61129981611284565b81146112a457600080fd5b50565b6000815190506112b681611290565b92915050565b6000602082840312156112d2576112d16110f9565b5b60006112e0848285016112a7565b91505092915050565b7f4e487b7100000000000000000000000000000000000000000000000000000000600052601160045260246000fd5b6000611323826110fe565b915061132e836110fe565b9250827fffffffffffffffffffffffffffffffffffffffffffffffffffffffffffffffff03821115611363576113626112e9565b5b828201905092915050565b60008151905061137d81611108565b92915050565b600060208284031215611399576113986110f9565b5b60006113a78482850161136e565b91505092915050565b60006040820190506113c560008301856111b9565b6113d260208301846111e3565b9392505050565b6000819050919050565b6000819050919050565b60006114086114036113fe846113d9565b6113e3565b6110fe565b9050919050565b611418816113ed565b82525050565b600060408201905061143360008301856111b9565b611440602083018461140f565b9392505050565b6000819050919050565b600061ffff82169050919050565b600061147a61147561147084611447565b6113e3565b611451565b9050919050565b61148a8161145f565b82525050565b60006080820190506114a560008301876111b9565b6114b260208301866111e3565b6114bf60408301856111b9565b6114cc6060830184611481565b95945050505050565b60006060820190506114ea60008301866111b9565b6114f760208301856111e3565b61150460408301846111b9565b94935050505056fea2646970667358221220d51201a88b0f9fcf48a69faf33d2bc3bdd3c6ccbd46635310432198663099f1a64736f6c634300080d0033",
  "immutableReferences": {},
  "source": "pragma solidity >0.4.20 <=0.9.0;\r\n\r\n\r\ninterface DAI {\r\n    function approve(address, uint256) external returns (bool);\r\n\r\n    function transfer(address, uint256) external returns (bool);\r\n\r\n    function transferFrom(\r\n        address,\r\n        address,\r\n        uint256\r\n    ) external returns (bool);\r\n\r\n    function balanceOf(address) external view returns (uint256);\r\n}\r\n\r\ninterface cDAI {\r\n    function mint(uint256) external returns (uint256);\r\n\r\n    function redeem(uint256) external returns (uint256);\r\n\r\n    function supplyRatePerBlock() external returns (uint256);\r\n\r\n    function balanceOf(address) external view returns (uint256);\r\n}\r\n\r\n\r\ninterface aDAI {\r\n    function balanceOf(address) external view returns (uint256);\r\n}\r\n\r\ninterface AaveLendingPool {\r\n    function deposit(\r\n        address asset,\r\n        uint256 amount,\r\n        address onBehalfOf,\r\n        uint16 referralCode\r\n    ) external;\r\n\r\n    function withdraw(\r\n        address asset,\r\n        uint256 amount,\r\n        address to\r\n    ) external;\r\n\r\n    function getReserveData(address asset)\r\n        external\r\n        returns (\r\n            uint256 configuration,\r\n            uint128 liquidityIndex,\r\n            uint128 variableBorrowIndex,\r\n            uint128 currentLiquidityRate,\r\n            uint128 currentVariableBorrowRate,\r\n            uint128 currentStableBorrowRate,\r\n            uint40 lastUpdateTimestamp,\r\n            address aTokenAddress,\r\n            address stableDebtTokenAddress,\r\n            address variableDebtTokenAddress,\r\n            address interestRateStrategyAddress,\r\n            uint8 id\r\n        );\r\n}\r\n\r\ncontract Aggregator {\r\n    DAI dai =DAI(0x6B175474E89094C44Da98b954EedeAC495271d0F);\r\n    aDAI aDai= aDAI(0x028171bCA77440897B824Ca71D1c56caC55b68A3);\r\n    cDAI cDai=cDAI(0x5d3a536E4D6DbD6114cc1Ead35777bAB948E3643);\r\n    AaveLendingPool lending_pool=AaveLendingPool(0x7d2768dE32b0b80b7a3454c06BdAc94A69DDc7A9);\r\n\r\n    address public Owner;\r\n    address public fundsLocation;\r\n    uint256 public amountDeposited;\r\n\r\n    constructor() {\r\n        Owner = msg.sender;\r\n    }\r\n\r\n    modifier onlyOwner(){\r\n        require(msg.sender==Owner);\r\n        _;\r\n    }\r\n    \r\n\r\n    function deposit(uint256 fund, uint256 _aveAPY, uint256 _compAPY) public {\r\n        require(fund>0);\r\n        \r\n\r\n        if(amountDeposited>0){\r\n            reBalance(_compAPY,_aveAPY);\r\n        }\r\n\r\n        dai.transferFrom(msg.sender, address(this), fund);\r\n        amountDeposited=amountDeposited+fund;\r\n\r\n        \r\n        if(_aveAPY>_compAPY){\r\n                _moveToAve();\r\n                fundsLocation=address(lending_pool);\r\n            }\r\n        if(_compAPY>_aveAPY){\r\n                require(_moveToComp()==0);\r\n                fundsLocation=address(cDai);\r\n            }\r\n}\r\n\r\n\r\n    function Withdraw() public onlyOwner {\r\n        require(amountDeposited>0);\r\n    if(fundsLocation==address(cDai)){\r\n       _withdrawComp();\r\n    }else{\r\n       _withdrawAave();\r\n    }\r\n\r\n    dai.transfer(msg.sender,dai.balanceOf(address(this)));\r\n    amountDeposited=0;\r\n\r\n        }\r\n\r\nfunction _withdrawComp()  internal returns(uint256){\r\n    uint256 balance=cDai.balanceOf(address(this));\r\n        uint256 result=cDai.redeem(balance);\r\n        return result;\r\n}\r\n\r\nfunction _withdrawAave() internal {\r\n        uint256 balance= aDai.balanceOf(address(this));\r\n       lending_pool.withdraw(address(dai), balance, address(this));\r\n       \r\n}\r\n\r\n\r\n\r\n    function _moveToAve() internal{\r\n\r\n        require(dai.approve(address(lending_pool),10**50));\r\n        lending_pool.deposit(address(dai), dai.balanceOf(address(this)), address(this),0);\r\n\r\n    } \r\n\r\nfunction _moveToComp() internal returns(uint256){\r\n    \r\n    require(dai.approve(address(cDai), 10**50));\r\n    uint256 result=cDai.mint(dai.balanceOf(address(this)));\r\n    return result;\r\n\r\n}\r\nfunction whereBalance() public view returns(address){\r\n    return fundsLocation;\r\n    \r\n}\r\n\r\nfunction ContractBalance() public view returns(uint256){\r\nif(fundsLocation==address(cDai)){\r\nreturn dai.balanceOf(address(this));\r\n}else{\r\n  return aDai.balanceOf(address(this));\r\n}\r\n\r\n}\r\n\r\nfunction reBalance( uint256 _aveAPY, uint256 _compAPY ) public onlyOwner{\r\n\r\nrequire(amountDeposited>0);\r\n\r\nif((_aveAPY>_compAPY) && (fundsLocation!=address(lending_pool))){\r\n \r\n        _withdrawComp();\r\n        _moveToAve();\r\n        fundsLocation=address(lending_pool);\r\n    \r\n    \r\n}else if((_compAPY>_aveAPY)&&(fundsLocation!=address(cDai))){\r\n   \r\n        _withdrawAave();\r\n        _moveToComp();\r\n        fundsLocation=address(cDai);\r\n    \r\n}\r\n\r\n}\r\n\r\n}",
  "sourcePath": "C:\\Users\\Naveen Reddy\\blockchain\\Aggregator Rebalancing Bot\\contracts\\Aggregator.sol",
  "compiler": {
    "name": "solc",
    "version": "0.8.13+commit.abaa5c0e.Emscripten.clang"
  },
  "schemaVersion": "3.4.6",
  "updatedAt": "2022-06-07T18:47:53.339Z",
  "devdoc": {
    "kind": "dev",
    "methods": {},
    "version": 1
  },
  "userdoc": {
    "kind": "user",
    "methods": {},
    "version": 1
  }
}